:1000000000000420B5020000DD020000DF02000055
:10001000E1020000E3020000E50200000000000031
:10002000000000000000000000000000E7020000E7
:10003000E902000000000000EB020000ED020000F9
:10004000EF020000EF02000041080000EF02000094
:10005000EF020000EF020000EF020000EF020000DC
:10006000EF020000EF020000EF020000EF020000CC
:10007000EF020000EF020000EF020000EF020000BC
:10008000EF020000EF020000EF020000EF020000AC
:10009000EF020000EF020000EF020000EF0200009C
:1000A000EF020000EF020000EF020000EF0200008C
:1000B000EF020000EF02000000000000000000005E
:1000C000EF020000EF020000EF020000EF0200006C
:1000D000EF020000EF020000EF020000EF0200005C
:1000E000EF020000EF020000EF020000000000003D
:1000F00000000000EF02000000000000EF0200001E
:1001000000000000000000000000000000000000EF
:1001100000000000000000000000000000000000DF
:1001200000000000000000000000000000000000CF
:1001300000000000000000000000000000000000BF
:1001400000000000000000000000000000000000AF
:10015000000000000000000000000000000000009F
:10016000000000000000000000000000000000008F
:10017000000000000000000000000000000000007F
:10018000000000000000000000000000000000006F
:10019000000000000000000000000000000000005F
:1001A000000000000000000000000000000000004F
:1001B000000000000000000000000000000000003F
:1001C000000000000000000000000000000000002F
:1001D000000000000000000000000000000000001F
:1001E000000000000000000000000000000000000F
:1001F00000000000000000000000000000000000FF
:1002000010B5054C237833B9044B13B10448AFF350
:1002100000800123237010BD840000200000000036
:100220000827000008B5034B1BB103490348AFF38F
:10023000008008BD000000008800002008270000A2
:10024000154B002B08BF134B9D46A3F5803A0021A8
:100250008B460F461348144A121A01F063FA0F4BEB
:10026000002B00D098470E4B002B00D09847002061
:10027000002104000D000D48002802D00C48AFF307
:10028000008001F02BFA2000290001F0B1F801F004
:1002900011FA00BF00000800000004200000000068
:1002A0000000000084000020500300200000000037
:1002B000000000000649074A074B9B1A03DD043B78
:1002C000C858D050FBDC01F0D7F8FFF7B9FF0000A9
:1002D000142700000000002084000020FEE7FEE755
:1002E000FEE7FEE7FEE7FEE7FEE7FEE7FEE7FEE7E6
:1002F000C20730B40ED483070AD54FF0A0430C22B6
:10030000C3F82C27C3F83027C3F86027C3F8642745
:1003100030BC70474FF0A0430322C3F834274FF49A
:100320000055C3F838274FF48044C3F83C274FF4F6
:100330000041C3F840274FF48032C3F80855C3F892
:100340000845C3F80815C3F80825D4E700B585B0FB
:1003500000230390194601AA44F20100CDE90133BC
:1003600000F004F805B05DF804FB00BF72B6094B5D
:100370001B68DB0700D500BEBFF34F8F0649074B54
:10038000CA6802F4E0621343CB60BFF34F8F00BF33
:10039000FDE700BFF0ED00E000ED00E00400FA052D
:1003A00059B142B1531E1A4005D182600160838069
:1003B000C26010467047092070470E20704700BF8A
:1003C00010B403468468C0689A88001B82420AD32E
:1003D000D8681C6802400020A154DA680132DA6053
:1003E0005DF8044B704704205DF8044B704700BF74
:1003F00003468068DA6890420DD010B498689A88F5
:100400001C6802400020A25C0A709A6801329A605F
:100410005DF8044B70470520704700BF30B5047885
:10042000012C83B027D017D3022C13D1384B394D70
:100430001A78C168AA5C01918DF80040002A3FD16A
:1004400003F10C000122344900F064FC334B684690
:100450001B68984703B030BD31493248FFF7C8FFE9
:10046000002843D002A8032300F8083D2B4B1B684B
:10047000984703B030BD037ABBB143682A4D197861
:100480002846FFF79DFF28B3244B01908DF80040CC
:100490001B6868469847A968EB68AA885B1A9A4265
:1004A00003D2224B01221A70D4E7194B194A1B7848
:1004B0001949D35C01224BB91D4800F02BFCC9E758
:1004C000181D0122144900F0F3FEBFE7194800F09F
:1004D000EFFEBFE7AA68EB689A42DCD002AB0F4A96
:1004E00003F8080D126818469047D4E70848094AEF
:1004F0000378D35C2BB9012209490C3000F098FB3A
:10050000A8E701220649043000F06EFEA2E700BF12
:100510000000002048030020C8000020A0000020A8
:10052000CC000020B8000020A4000020B40000206F
:100530000C000020040000202DE9F045324C89B069
:100540002260002955D00C4680468A882F480968C9
:100550009A46FFF725FF10B109B0BDE8F085A289E2
:10056000A1682B48FFF71CFF0028F5D1294D98F80A
:1005700010C0D8F81470284E0FCD6C460FC495E803
:100580000F0098F811501CF1000C18BF4FF0010C2F
:10059000002D84E80F00D8F80850D8F80040D8F8AB
:1005A0000430069714BF0E220022D8F80C708DF884
:1005B000152069463046194A8DF81CA08DF814C0E4
:1005C000CDE90275CDE9003400F0F6F80028C3D17A
:1005D000D8F80030124A01331070BDD0114A337878
:1005E000D35C53B906F10C0001220F4900F092FBD5
:1005F000B2E7072009B0BDE8F085301D01220A49A5
:1006000000F056FEA8E700BFA0000020A4000020D4
:10061000B800002010260000000000201D0400008B
:10062000B400002048030020C800002070B5114C21
:10063000014611482678FFF7DBFE05460EB928462D
:1006400070BD0E480E4A0378D35C0022227053B965
:100650000C3001220B4900F05DFB0028EFD0FFF7C2
:1006600075FE284670BD01220649043000F020FEC8
:10067000F3E700BFB4000020A40000200000002029
:1006800048030020C800002070B501461548FFF758
:1006900097FE044608B1204670BD134D134E2B78CB
:1006A000F35CABB905F10C0000F028FB0028F2D197
:1006B0000F490C48FFF79CFE0028ECD12B780C4921
:1006C000F35C012243B90B48BDE8704000F0B0BABA
:1006D000281D00F0DFFDE9E70748BDE8704000F0A5
:1006E00083BD00BFB80000200000002048030020A8
:1006F000CC0000200C0000200400002072B6024A4A
:100700001368013313607047D0000020034A136858
:10071000013B136003B962B6704700BFD0000020F0
:1007200070B5161E07DD0C468D1914F8010BFFF786
:10073000ABFFA542F9D1304670BD00BF10B50C46E5
:100740002046FFF773FF0528FAD0012010BD00BF37
:1007500030B585B0047845688DF80040D0E9024096
:10076000064A074B039053F8213001958DF8084055
:1007700052F821106846984705B030BDD4000020DB
:10078000DC00002030B585B0047845688DF8004065
:10079000D0E90240064A074B039053F821300195F7
:1007A0008DF8084052F821106846984705B030BDD2
:1007B000D4000020DC0000202DE9F043DFF8748035
:1007C00006784B7F08F806300D46074696460FCD53
:1007D00089B06C460FC495E80F003D78DFF858905B
:1007E000DFF858C018F8055049F826E084E80F00F3
:1007F0004CF82600049665B1BEF1000F0B4A69461D
:1008000007F1040008BF002200F0D4FB09B0BDE8E6
:10081000F083BEF1000F064A694607F10C0008BFDD
:10082000002200F011F909B0BDE8F0835107000083
:100830008507000048030020DC000020D4000020D1
:10084000014B1B68184700BFE400002038B50C4B73
:10085000984201D0002038BD00200D46FFF74EFF22
:10086000084B1C7924B10020FFF750FF112038BD40
:10087000012220461D601A71FFF748FF204638BD4F
:1008800000200040E400002030B56D4AD2F8043367
:1008900099058BB068D5D2F82431002B64D00023A1
:1008A000C2F82431D2F8243101934FF40171654B21
:1008B0000198C2F8081393F8291009B90121516071
:1008C0005F4902228DF81820D1F88024C1F88024D5
:1008D0009869D96809920022CDE90710C3E9062278
:1008E000D3E9001406A8A047554AD2F81C31CBB171
:1008F000544B5869196A88426BD851490022C1F893
:100900001C21D1F81C1102910299596951B1586901
:1009100099688DF8182008905A61079106A8D3E9C4
:1009200000129047464AD2F84431DBB10021454BD2
:10093000C2F84411D2F8440193F8291000900098AD
:1009400009B1012111609A6962B10022586AD9681F
:100950009A610122CDE907108DF8182006A8D3E985
:10096000001290470BB030BD354AD2F804335B0714
:10097000BAD5D2F80831002BB6D0324B996900298C
:100980003CD00021C2F80811D2F808110491049952
:10099000D868596AD2F8182542545A6A99690132BE
:1009A0005A625A6A8A429FD1DA691968002A2ED09F
:1009B000D8685D6A1C699A61079000220120DC609A
:1009C000DA615A628DF8180008955B6806A89847A6
:1009D0008AE793F8281001F0FF0000298DD1C2F8B2
:1009E0001C01D2F81C11039103999C68186A196ABA
:1009F000205C01311962C2F81C0593E7C2F80811A6
:100A0000D2F8080105900598D2F81825C9E793F89F
:100A1000292012B90A4A01205060094A4FF4017096
:100A2000C2F80803586ADA68089000240120079287
:100A30008DF818005A689C6106A8904754E700BFDB
:100A400000200040EC0000202DE9F041724F0679B3
:100A50002C2505FB067582B095F82A30002B40F056
:100A60009C800D4604466D4900689046FFF7EEFEF7
:100A7000002840F08E802B68591C19D01F2B4FF096
:100A800001028ABF66494FF0A04103F01F0302FA3A
:100A900003F3C1F808352B681F2B86BF03F01F0333
:100AA0005F4A4FF0A04203F5E073032142F82310A0
:100AB0006B685A1C0BD01F2B86BF03F01F03584ACC
:100AC0004FF0A04203F5E073002142F823102368A1
:100AD000AA69C3F82425297D6B7D22680B43C2F8DF
:100AE0006C35D5E900122368C3F81425C3F80C153A
:100AF0002B7D012B55D02C2303FB06F3FA18C2F8EB
:100B000004802A69FA50B8F1000F2FD022682B7F99
:100B1000444D0021C2F81C11D2F81C210092226819
:100B2000DDF800C0C2F84411D2F8441122680191E6
:100B30000199C2F804532168090B4AB25B01002AEB
:100B4000DBB263DB02F1604202F5614282F80033FE
:100B500021680A0B53B2002B09DB01215B09324DDE
:100B600002F01F0201FA02F245F8232021682C232B
:100B700003FB0673002201250424C1F8004583F815
:100B80002A50C3E9062283F829205A6102B0BDE841
:100B9000F081112002B0BDE8F081082002B0BDE86C
:100BA000F081AB68591C0BD01F2B86BF03F01F03CD
:100BB0001B4A4FF0A04203F5E073002142F82310D6
:100BC000EB685A1C1BD01F2B4FF001028ABF14493F
:100BD0004FF0A04103F01F0302FA03F3C1F80835F8
:100BE000EB681F2B88BF03F01F0303F5E0738CBF76
:100BF0000B4A4FF0A042032142F82310EB68226811
:100C0000A968C2F80835C2F8101574E7074A01F060
:100C10000F010A4413769BE7EC00002089080000CE
:100C2000000300508000020000E100E0FCEC00E066
:100C3000F0B5314E05792C2303FB056385B05C6963
:100C4000002C53D15A6199601C6283F828400268D5
:100C5000C2F81C41D2F81C11026802910121029FC6
:100C600091600268D3F808C0C2F81C41D2F81C1188
:100C700001910199D3F820E0196A5F681CF80EE031
:100C800001311962C2F81CE517B1204605B0F0BD6C
:100C90005C691A6A0168944203D819E093F8282025
:100CA0003ABBD1F81C21002AF8D0C1F81C71D1F848
:100CB0001C210392039AD3F820E01A6A1CF80EE074
:100CC00001321A62C1F81CE51A6A9442E9D8016837
:100CD000D1F81C31002BFBD00123CB6000202C234A
:100CE00003FB056500236B6105B0F0BD112005B065
:100CF000F0BD0F20F3E700BFEC0000200379044AA9
:100D00002C2101FB03235869003018BF01207047D4
:100D1000EC000020F0B4514D04792C2303FB045364
:100D200086B05F6827B103684FF40176C3F80863A3
:100D30002C2303FB04539E696EB1DE690EB3002FB2
:100D400000F0848003684FF401721120C3F804237B
:100D500006B0F0BC704793F829709A61D9605E6262
:100D6000DE61002F60D02C2202FB04520168536820
:100D700053B14FF40173C1F80433002006B0F0BC46
:100D800070471961DA61EEE7C1F84431D1F84431B6
:100D90000393039B0368D3F82461D3F80871D3F855
:100DA000441157B9002936D1002EF4D02C2303FB6F
:100DB00004540023A3610320E0E7002EF6D161BBB9
:100DC000966996B1C3F80811D3F8081104910499F3
:100DD000D668516AD3F818357354536A9169013350
:100DE0005362536A9942D5D808E0C3F80861D3F832
:100DF000081105910599D3F81835536A2C2303FB84
:100E00000454002294F82930A2610BB30368012135
:100E100010461960B2E7002EC8D12C2303FB0454FE
:100E20000023A3610F20A9E70368C3F82471D3F856
:100E3000242103680192019AC3F80871D3F80821AC
:100E400003680292012202991A608CE7112095E74B
:100E5000026801211846516090E700BFEC000020B5
:100E6000F0B5524BD3F824218BB0002A6ED000216C
:100E7000C3F82411D3F82421049202228DF81820FB
:100E8000049AD3F880044A4AC3F880040990D3F83E
:100E90003C05D3680890C2E90611079311685368AE
:100EA00006A89847414BD3F84421BAB10021404AE3
:100EB000C3F84411D3F8444190690394039C68B18A
:100EC000D3F83C35D06808930123C2E90611079096
:100ED0008DF8183006A8D2E900139847334BD3F8A1
:100EE0002021BAB10021C3F82011D3F820210292A9
:100EF00001202F4A029CD860506958B1D3F84C05A4
:100F0000936808908DF818105161079306A8D2E9EC
:100F100000139847254BD3F85821AAB10021C3F8F4
:100F20005811D3F85801224A01900198506958B1DC
:100F3000D3F84C05936808908DF818105161079309
:100F400006A8D2E9001398470BB0F0BDD3F81011F2
:100F50000029A7D0C3F81021D3F810111448059127
:100F600005998169D3F83C458C429BD1C569C76816
:100F7000D0E900168DB1D3F800C285612CF02005B0
:100F8000C261C3F800520369C3600122CDE907744E
:100F90008DF8182006A8B04784E701238561CDE9C4
:100FA00007748DF8183006A8B0477BE70020004092
:100FB000180100202DE9F0430779854E4FEAC70854
:100FC00008EB070506EB850587B095F82030002B68
:100FD00040F0BA80894604467E4900681546FFF70E
:100FE00035FC002840F0AC80D9F80030591C1AD0EC
:100FF0001F2B4FF001028ABF77494FF0A04103F049
:101000001F0302FA03F3C1F80835D9F800301F2B8B
:1010100086BF03F01F03704A4FF0A04203F5E07350
:10102000032142F82310D9F804305A1C0BD01F2B8F
:1010300086BF03F01F03684A4FF0A04203F5E07338
:10104000002142F823102368D9F81820C3F824257A
:1010500099F8141099F8152023680A43C3F86C25F1
:10106000D9E900312268C2F80C35C2F8141599F894
:101070001430012B6CD008EB07029200B3185D60AE
:10108000D9F81030B3502168002D48D0002399F8CA
:101090001C20C1F81031D1F8101101912168DDF840
:1010A00004C0C1F82031D1F8201102912168DDF887
:1010B00008C0C1F82431D1F8241103912168DDF86A
:1010C0000CC0C1F84431D1F8441104912168DDF815
:1010D00010C0C1F85831D1F85811236805913F4D1F
:1010E0000599C3F804532168090B53014AB2002A39
:1010F000DBB267DB02F1604202F5614282F8003345
:1011000021680A0B53B2002B09DB01215B09344D26
:1011100002F01F0201FA02F245F82320216808EBD1
:10112000070306EB8303002201250824C1F80045CC
:1011300083F82050C3E906225A6107B0BDE8F08366
:10114000112007B0BDE8F083082007B0BDE8F083A8
:10115000D9F80830591C0BD01F2B86BF03F01F0392
:101160001D4A4FF0A04203F5E073002142F823101E
:10117000D9F80C305A1C1DD01F2B4FF001028ABF2A
:1011800015494FF0A04103F01F0302FA03F3C1F821
:101190000835D9F80C301F2B88BF03F01F0303F567
:1011A000E0738CBF0C4A4FF0A042032142F8231099
:1011B000D9F80C302268D9F80810C2F80835C2F8FE
:1011C000101558E7074A01F00F010A44137697E714
:1011D00018010020610E00000003005010034200BF
:1011E00000E100E0FCEC00E001F06043B3F1005FDF
:1011F0002CD1F0B40579264EEF007C1906EB84045F
:1012000082B0636923BB6261A1600268C2F82031C9
:10121000D2F820C10268CDF804C0DDF804C0C2F8DD
:101220005831D2F8582100920268DDF800C0D4F895
:1012300014C0C2F84415C2F848C502680121916083
:1012400062684AB1184602B0F0BC7047102070477F
:10125000112002B0F0BC7047036800E0B2B9D3F8C7
:101260002011D3F858210029F8D07AB90122DA6088
:101270000268D2F85831002BFBD000203D4406EB29
:1012800085060023736102B0F0BC70470F20F5E7BC
:10129000180100200379054A03EBC30302EB830323
:1012A0005869003018BF0120704700BF18010020A6
:1012B00001F06043B3F1005F7ED1F0B40579464C94
:1012C000EB005E1904EB860682B0766826B10768EB
:1012D0004FF4047CC7F808C32B4404EB83039D69D7
:1012E000002D42D19A61DD61D9600368C3F81051C5
:1012F000D3F8106103680196019EC3F84451D3F8F6
:10130000445103680095009DC3F83415C3F838258F
:10131000036801221A6005790368EE00721904EB74
:10132000820252685AB14FF40472C3F804230020B9
:1013300002B0F0BC7047002942D1002846D1D3F852
:101340001021D3F84411D3F82401002AF3D03544F6
:1013500000284FF0000304EB850414BF0320184657
:101360009942A36118BF0F20E2E7DD693DB12EB3BA
:1013700003684FF40472C3F804231120D8E71961FD
:10138000DA610368C3F81051D3F81061036801965D
:10139000019EC3F84451D3F8445103680095009D61
:1013A000C3F83415C3F838250268D2F8003243F088
:1013B0002003C2F80032AEE7102070471120B7E7D3
:1013C000354404EB85040F20A261B1E7354404EBFA
:1013D00085040320A161ABE7180100200378022BEC
:1013E00002D0012B00D070474068FEF7AFBF00BFAE
:1013F00030B501208BB01A4DFEF77AFF194B0093E0
:101400000FCD04AC0FC495E80300174D174A84E8CC
:10141000030007234FF48074694604A80194CDE9C2
:101420000254FFF789F8B8B9114800F083F968460B
:10143000FFF7FCF80028FAD19DF80000FFF724F927
:101440000028F9D19DF8003003F0DF03512BEED1D5
:10145000084800F06FF9FEE7FEF778FFE4E700BF09
:10146000302600003C0100203C020020DD1300007B
:10147000482600006426000030B47E4B1B685C1CCC
:101480002DD07D4A082B126800F0B080794B7A4A43
:101490001B681268082B7ED0591C00F08A80764A9F
:1014A0001268082B78D0754AD2F8883043F470035C
:1014B000C2F88830BFF34F8FBFF36F8F4FF0102308
:1014C000D3F80022002AC0F2A480D3F80432002B03
:1014D000C0F29F806A4B6B4A1A6030BC70476A4A00
:1014E0006A4B12781B68082AC3F3031301D1032B3C
:1014F0007ED9664A644B12681B78C2F30312082B2C
:10150000C4D1032AC2D84FF08052614BD2F80414E0
:10151000C3F82015D2F80814C3F82415D2F80C1417
:10152000C3F82815D2F81014C3F82C15D2F81414E7
:10153000C3F83015D2F81814C3F83415D2F81C14B7
:10154000C3F84015D2F82014C3F84415D2F8241477
:10155000C3F84815D2F82814C3F84C15D2F82C1447
:10156000C3F85015D2F83014C3F85415D2F8341417
:10157000C3F86015D2F83814C3F86415D2F83C14D7
:10158000C3F86815D2F84014C3F86C15D2F8442497
:10159000C3F870257AE79AB1032A84D84FF08043C4
:1015A000D3F80024D20744BF6FF00102C3F800242F
:1015B00079E7364A344B12681B78C2F3031270E79E
:1015C000344C3549354D25603548364AFB24C1F841
:1015D000184501681268344C21F00F0102F00F0227
:1015E0000A434FF400710260216058E7032A0DD8C6
:1015F000204B1B684FF080420021581CC2F80C1190
:10160000C2F81011C2F838153FF473AF1A4A1268C5
:1016100075E7264B0122C3F80425D3F80024002ADD
:10162000FBD04FF0102312222049C3F80022D1F83A
:101630000034002BFBD04FF0102212211B4BC2F8BC
:101640000412D3F80024002AFBD000221749C3F863
:101650000425D1F80034002BFBD0BFF34F8F07498E
:10166000134BCA6802F4E0621343CB60BFF34F8FA1
:1016700000BFFDE7300100103401001000ED00E074
:10168000140000200090D003E00F00F0E80F00F0FD
:1016900000C000408C56004000F00040488103002C
:1016A000E40E0040580200104096024000E0014065
:1016B0000400FA0508B5074B044613B10021AFF347
:1016C0000080054B1868836A03B19847204600F0F4
:1016D00091FF00BF000000007026000070B50D4EA5
:1016E0000D4CA41BA4100025A54209D10B4E0C4C97
:1016F00000F082FFA41BA4100025A54205D170BDF7
:1017000056F8253098470135EEE756F825309847CA
:101710000135F2E77C0000207C0000207C000020E6
:101720008000002002440346934200D1704703F832
:10173000011BF9E70FB40A4B13B51C6824B1A36968
:1017400013B9204600F04EF805AB049AA168019346
:10175000204600F055F902B0BDE8104004B07047D3
:1017600018000020002310B50446C0E90033836050
:1017700081814366C281C0E904338361194608222E
:101780005C30FFF7CFFF054B6362054BA362054B4F
:10179000E362054B2462236310BD00BF591F0000A4
:1017A0007B1F0000B31F0000D71F0000014900F09D
:1017B00085B800BFB122000070B54A1E68255543A8
:1017C0000E4605F1740100F097F8044640B100217F
:1017D000C0E900160C30A06005F16802FFF7A2FF17
:1017E000204670BD836910B5044633BBC0E912338F
:1017F0000365124B124A1B688262984204BF0123A0
:10180000836100F01FF86060204600F01BF8A060C4
:10181000204600F017F80022E06004216068FFF71E
:10182000A1FF01220921A068FFF79CFF02221221DB
:10183000E068FFF797FF0123A36110BD7026000049
:10184000AD170000F8B51B4B1E68B369074613B906
:101850003046FFF7C7FF4836D6E90134013B03D5D0
:10186000336833B13668F7E7B4F90C506DB16834BA
:10187000F4E704213846FFF79FFF30600028F1D1DC
:101880000C233B6004462046F8BD0B4B6566C4E95B
:101890000055A560C4E90335C4E905550822294669
:1018A00004F15C00FFF73EFFC4E90D55C4E9125591
:1018B000E9E700BF702600000100FFFF2DE9F843B3
:1018C0008046894600F14804002614B93046BDE838
:1018D000F883D4E90175013F01D52468F5E7AB89A8
:1018E000012B07D9B5F90E30013303D02946404604
:1018F000C84706436835EEE770B5CD1C25F00305F3
:1019000008350C2D38BF0C25002D064601DBA942F9
:1019100003D90C233360002070BD00F0B9FD214ACB
:101920001468214691B9204C23681BB9304600F059
:1019300003FB20602946304600F0FEFA431C24D108
:101940000C233360304600F0A4FDE4E70B685B1B1A
:1019500018D40B2B0FD90B60CD50CC18304600F0AB
:1019600098FD04F10B00231D20F00700C31AD3D00B
:101970005A42E250D0E78C424B6816BF6360136056
:101980000C46EBE70C464968CCE7C41C24F0030482
:10199000A04205D0211A304600F0CEFA0130CFD057
:1019A0002560DBE73C030020400300209368013BF7
:1019B000002B10B4936008DA9469A34201DB0A2972
:1019C00003D15DF8044B00F00BBB1368581C10608A
:1019D000197008465DF8044B7047F8B506460F4687
:1019E0001446D518AC4201D1002007E03A4614F85D
:1019F000011B3046FFF7DAFF431CF3D1F8BD0000AE
:101A00002DE9F04F9DB00C4617460393064618B1DA
:101A100083690BB9FFF7E6FE7B4B9C4257D1746894
:101A2000A38918075DD52369002B5AD00023099399
:101A300020238DF8293030238DF82A304FF0010B08
:101A4000B846454615F8013B0BB1252B54D1B8EBF0
:101A5000070A0BD053463A4621463046FFF7BDFFF2
:101A6000013000F0C280099B5344099398F800307C
:101A7000002B00F0BA8000234FF0FF32CDE90523A0
:101A8000049307938DF853301A93A846052218F84B
:101A9000011B5E4800F0ACFC049B78BBD90644BF38
:101AA00020228DF853201A0744BF2B228DF8532093
:101AB0002A782A2A2AD0079AA84600200A254146D1
:101AC00011F8013B303B092B69D960B324E0504B3E
:101AD0009C4201D1B468A3E74E4B9C4208BFF46816
:101AE0009EE72146304600F0DFFA00289ED04FF0F6
:101AF000FF301DB0BDE8F08FA846A2E7434A801A28
:101B00000BFA00F0184304904546BEE7039A111DF6
:101B100012680391002A01DB079204E0524243F06D
:101B200002030792049398F800302E2B0ED198F8F8
:101B300001302A2B38D1039B1A1D1B680392002BFE
:101B4000B8BF4FF0FF3308F102080593324D98F803
:101B500000100322284600F04BFC40B14023401BFC
:101B600003FA00F0049B034308F10108049398F87A
:101B700000102A488DF82810062208F1010700F00D
:101B800037FC002837D0264B1BBB039B073323F0C1
:101B9000070308330393099B4B44099350E705FB64
:101BA0000232012088468AE7002308F101080593E4
:101BB00019460A25404610F8012B303A092A03D964
:101BC000002BC3D00591C1E705FB0121012380460D
:101BD000F0E703AB00932246124B04A93046AFF363
:101BE0000080B0F1FF3F8146D5D1A3895B063FF568
:101BF0007EAF09987DE703AB00932246094B04A909
:101C0000304600F087F8ECE794260000D426000068
:101C1000B426000074260000DA260000DE2600004C
:101C200000000000DB1900002DE9F04791461F4637
:101C30008A680B69DDF820809342B8BF1346C9F863
:101C4000003091F8432006460C4612B10133C9F822
:101C500000302368990642BFD9F800300233C9F832
:101C60000030256815F0060507D104F1190AE3686C
:101C7000D9F800209B1AAB4228DC94F84330226844
:101C8000003318BF012392062DD404F143023946D4
:101C90003046C047013020D02368E568D9F80020DD
:101CA00003F00603042B08BFAD1AA36822690CBF1A
:101CB00025EAE57500259342C4BF9B1AED184FF045
:101CC00000091A344D451AD1002008E0012352467C
:101CD00039463046C047013003D14FF0FF30BDE8F0
:101CE000F0870135C3E7E1185A1C302081F8430022
:101CF000224494F8451082F843100233C5E70123CB
:101D0000224639463046C0470130E6D009F1010984
:101D1000D8E700002DE9F04301F1430C0C46097EA1
:101D200085B06E291746064698460C9A00F0B38097
:101D300022D8632936D00AD8002900F0B980582962
:101D400000F0838004F1420584F8421032E06429F7
:101D500001D06929F6D120681368050603F1040152
:101D60002AD51B681160002B03DA2D225B4284F810
:101D700043206F480A2239E0732900F09D8008D87B
:101D80006F2920D07029DDD1236843F02003236020
:101D900003E0752917D07829D4D1782384F8453009
:101DA000644855E01368191D1B68116004F1420571
:101DB00084F8423001238CE01B68116010F0400F62
:101DC00018BF1BB2CFE713682568181D10602806DE
:101DD00001D51B6802E06806FBD51B8854486F29B3
:101DE00014BF0A220822002184F843106568A56008
:101DF000002DC0F29580216821F004012160002BA4
:101E00003DD1002D40F08E806546082A0BD1236815
:101E1000DB0708D5236962689A42DEBF302305F8E4
:101E2000013C05F1FF35ACEB05032361CDF80080E3
:101E30003B4603AA21463046FFF7F6FE01304DD15E
:101E40004FF0FF3005B0BDE8F083394884F8451005
:101E5000136821681D1D1B6815600A060BD5CA078B
:101E600044BF41F0200121601BB9226822F020020A
:101E700022601022B7E74D0648BF9BB2EFE76546E8
:101E8000B3FBF2F102FB1133C35C05F8013D0B46D5
:101E90000029F5D1B9E7136825686169181D10603C
:101EA00028061B6801D5196002E06A06FBD5198077
:101EB000002323616546B9E71368191D11601D6889
:101EC00062680021284600F093FA08B1401B606068
:101ED00063682361002384F84330A7E723692A4617
:101EE00039463046C0470130AAD023689B0713D437
:101EF000E068039B9842B8BF1846A3E701234A460F
:101F000039463046C04701309AD00135E368039A1C
:101F10009B1AAB42F2DCEBE7002504F11909F5E767
:101F2000002BACD1037884F8423004F142056CE711
:101F3000E5260000F626000038B5064C00230546CD
:101F40000846236000F048FB431C02D1236803B11C
:101F50002B6038BD4C03002010B50C46B1F90E10B3
:101F600000F0E6FA0028ABBF636DA3891B1823F4C9
:101F70008053ACBF6365A38110BD2DE9F0411F46BE
:101F80008B89DB0505460C46164605D50223002243
:101F9000B1F90E1000F0B6F9A389B4F90E1023F4CC
:101FA0008053A38132463B462846BDE8F04100F00D
:101FB00069B810B50C46B1F90E1000F0A3F9431C36
:101FC000A38915BF606523F4805343F48053A38134
:101FD00018BFA38110BDB1F90E1000F0D3B80000F6
:101FE000F8B50E461446054618B183690BB9FFF7DC
:101FF000F9FB214B9C422AD16C68A369A360A38999
:102000001A072ED5236963B323692068C01A636950
:10201000F6B28342374604DC2146284600F048F9F0
:1020200028BBA368013BA36023685A1C22601E7072
:1020300063690130834204D0A389DB0719D50A2ED6
:1020400017D12146284600F033F990B10FE00B4B31
:102050009C4201D1AC68D0E7094B9C4208BFEC68B8
:10206000CBE72146284600F01FF80028CCD04FF0DF
:10207000FF373846F8BD00BF94260000B4260000A4
:102080007426000038B5074C054608461146002264
:1020900022601A46FEF744FB431C02D1236803B1B9
:1020A0002B6038BD4C030020324B70B51D680646CE
:1020B0000C4625B1AB6913B92846FFF793FB2E4BAD
:1020C0009C420FD16C68B4F90C309AB215072CD42D
:1020D000D00611D40922326043F04003A3814FF0AF
:1020E000FF303EE0254B9C4201D1AC68EBE7244B2E
:1020F0009C4208BFEC68E6E7510712D5616B41B11D
:1021000004F14403994202D0304600F0C3F90023A1
:102110006363A38923F02403A381002363602369FD
:102120002360A38943F00803A38123694BB9A389E2
:1021300003F42073B3F5007F03D02146304600F04E
:1021400017F9A28912F001030CD00023A360636980
:102150005B42A361236953B9B4F90C3013F08000DA
:10216000BAD170BD920758BF6369A360F2E700203F
:10217000F7E700BF1800002094260000B4260000F6
:102180007426000038B5064C002305460846236037
:1021900000F002FA431C02D1236803B12B6038BD62
:1021A0004C0300208A892DE9F041054610070C46B2
:1021B00058D44B68002B05DC0B6C002B02DC002094
:1021C000BDE8F081E66A002EF9D0002312F48052B7
:1021D0002F68216A2B6032D0606DA3895A0705D51C
:1021E0006368C01A636B0BB1236CC01A00230246EC
:1021F000E66A216A2846B047431CA38906D12968AC
:102200001D2948D8294ACA40D60744D50022626011
:10221000D9042269226004D5421C01D12B6803B97C
:102220006065616B2F600029C9D004F144039942B5
:1022300002D0284600F02EF900206063C0E7012399
:102240002846B047411CC8D12B68002BC5D01D2B98
:1022500001D0162B01D12F60B1E7A38943F04003D1
:10226000A381ADE70F69002FA9D093070E6808BFBF
:102270004B690F6018BF0023A6EB07088B60B8F10D
:10228000000F9CDD43463A46216AA66A2846B047BD
:10229000002806DCA38943F04003A3814FF0FF3000
:1022A0008EE70744A8EB0008E9E700BF01004020E3
:1022B00038B50B6905460C46DBB118B183690BB91B
:1022C000FFF790FA0C4B9C4209D16C68B4F90C30C2
:1022D0007BB121462846BDE83840FFF763BF074B76
:1022E0009C4201D1AC68F1E7054B9C4208BFEC6809
:1022F000ECE7002038BD00BF94260000B4260000A3
:102300007426000038B5074C0546084611460022E1
:1023100022601A4600F058F9431C02D1236803B129
:102320002B6038BD4C03002070B50E46B1F90E107D
:10233000002996B014461D4607DA00232B60B389A6
:102340001A0610D44FF480630EE06A4600F002F9DA
:102350000028F2DB019A02F47042A2F500535A42BF
:102360005A412A60EEE740230020236016B070BD7A
:102370008B8973B59D0706460C4607D504F14703C4
:10238000236023610123636102B070BD01AB6A4623
:10239000FFF7CAFF009905463046FFF7ADFA48B986
:1023A000B4F90C309A05EFD423F0030343F0020391
:1023B000A381E3E70D4BB362A389206043F0800360
:1023C000A381009B6361019B20615BB1B4F90E1096
:1023D000304600F0D1F828B1A38923F0030343F07D
:1023E0000103A381A3891D43A581CDE7AD1700009B
:1023F00001F0FF01102A2BDB10F0070F08D010F8B6
:10240000013B013A8B422DD010F0070F42B3F6D1B9
:10241000F0B441EA012141EA014122F007047FF0D2
:1024200000070023F0E80256083C85EA010586EA29
:10243000010685FA47F5A3FA87F586FA47F6A5FA65
:1024400087F68EB9EED1F0BC01F0FF0102F0070271
:1024500032B110F8013B013A83EA010313B1F8D11C
:102460000020704701387047002D06BF35460338FD
:10247000073815F0010F07D1013015F4807F02BF36
:10248000013015F4C03F0130F0BC0138704700BF87
:102490007047704738B50546002945D051F8043CCF
:1024A0000C1F002BB8BFE418FFF7F2FF1F4A136898
:1024B000104633B9636014602846BDE83840FFF722
:1024C000E8BFA3420CD921686218934204BF1A687E
:1024D0005B68636004BF521822600460ECE7134637
:1024E0005A680AB1A242FAD919685818A0420BD109
:1024F00020680144581882421960DDD11068526882
:102500005A6001441960D7E702D90C232B60D3E746
:10251000206821188A4204BF11685268626004BFB3
:10252000091821605C60C7E738BD00BF3C0300208C
:1025300038B5074C054608461146002222601A4667
:10254000FEF7FCF8431C02D1236803B12B6038BDB1
:102550004C03002038B5074C0023054608461146B9
:10256000236000F021F8431C02D1236803B12B60E3
:1025700038BD00BF4C03002038B5064C002305468B
:102580000846236000F018F8431C02D1236803B109
:102590002B6038BD4C030020024B58221A604FF0CC
:1025A000FF3070474C030020024B58221A604FF056
:1025B000FF3070474C030020024B58221A60002065
:1025C000704700BF4C030020024B58221A604FF0A6
:1025D000FF3070474C030020044A05491368002B64
:1025E00008BF0B461844106018467047440300208B
:1025F00050030020FEE700BFF8B500BFF8BC08BCE0
:102600009E467047F8B500BFF8BC08BC9E467047B0
:10261000FFFFFFFFFFFFFFFFFFFFFFFFFFFFFFFFCA
:1026200000000000000000000000D60106010000CC
:102630000800000006000000050000000700000080
:102640000000000000E0D7010D0A554152542065FA
:1026500078616D706C6520737461727465642E0DA1
:102660000A000000200D0A45786974210D0A000057
:102670001C0000200000000000000000000000001E
:10268000000000000000000000000000000000004A
:10269000000000000000000000000000000000003A
:1026A000000000000000000000000000000000002A
:1026B000000000000000000000000000000000001A
:1026C000000000000000000000000000000000000A
:1026D00000000000232D302B2000686C4C00656644
:1026E0006745464700303132333435363738394163
:1026F0004243444546003031323334353637383979
:0C27000061626364656600000000000078
:08270C0034DBFF7F0100000037
:1027140000000000002000400000000000200040F5
:10272400000000000090D0031C0000200000000006
:1027340094260000B4260000742600000000000067
:102744000000000000000000000000000000000085
:102754000000000000000000000000000000000075
:102764000000000000000000000000000000000065
:102774000000000000000000000000000000000055
:10278400000000000000000000000000250200001E
:04279400010200003E
:04000003000002B542
:00000001FF
