:020000022000DC
:1070000000000420AD7D0200D57D0200E175020084
:10701000D97D0200DB7D0200DD7D02000000000062
:10702000000000000000000000000000DF7D020002
:10703000E17D020000000000E37D0200E57D02002A
:10704000E77D0200E77D0200E77D0200E77D0200A8
:10705000E77D0200E77D0200E77D0200E77D020098
:10706000E77D0200E77D0200E77D0200E77D020088
:10707000E77D0200E77D0200E77D0200E77D020078
:10708000E77D0200E77D0200E77D0200E77D020068
:10709000E77D0200E77D0200E77D0200E77D020058
:1070A000E77D0200E77D0200E77D0200E77D020048
:1070B000E77D0200E77D0200000000000000000004
:1070C000E77D0200E77D0200E77D0200E77D020028
:1070D000E77D0200E77D0200E77D0200E77D020018
:1070E000E77D0200E77D0200E77D0200000000006E
:1070F00000000000E77D020000000000E77D0200C4
:10710000000000000000000000000000000000007F
:10711000000000000000000000000000000000006F
:10712000000000000000000000000000000000005F
:10713000000000000000000000000000000000004F
:10714000000000000000000000000000000000003F
:10715000000000000000000000000000000000002F
:10716000000000000000000000000000000000001F
:10717000000000000000000000000000000000000F
:1071800000000000000000000000000000000000FF
:1071900000000000000000000000000000000000EF
:1071A00000000000000000000000000000000000DF
:1071B00000000000000000000000000000000000CF
:1071C00000000000000000000000000000000000BF
:1071D00000000000000000000000000000000000AF
:1071E000000000000000000000000000000000009F
:1071F000000000000000000000000000000000008F
:107200000348044B834202D0034B03B11847704735
:10721000702300207023002000000000054806496C
:107220000B1AD90F01EBA301491002D0034B03B194
:1072300018477047702300207023002000000000D2
:1072400010B5064C237843B9FFF7DAFF044B13B1AE
:107250000448AFF300800123237010BD7023002089
:10726000000000004084020008B5044B1BB1044933
:107270000448AFF30080BDE80840CFE700000000FD
:107280007423002040840200A3F5803A704700BFB9
:10729000154B002B08BF114B9D46FFF7F5FF002152
:1072A0008B460F461148124A121A00F07DF80C4B1B
:1072B000002B00D098470B4B002B00D098470020A4
:1072C000002104000D000B4800F016F800F048F80B
:1072D0002000290000F066F900F014F80000080012
:1072E00000000000000000000000042070230020C7
:1072F000A02400202D730200002301461A461846E0
:1073000000F0A2B808B5074B044613B1002100F005
:10731000EBF8054B1868836A03B19847204600F0E4
:1073200031F900BFE97402001883020038B50A4C35
:107330000A4D641BA4100AD004F18043013B05EB05
:107340008305013C55F804399847002CF9D1BDE874
:10735000384000F0DBBF00BF702300206C2300200A
:1073600070B50D4E0D4D761BB61006D000240134BD
:1073700055F8043B9847A642F9D1094E094D761BB2
:1073800000F0BEFFB61006D00024013455F8043BCF
:107390009847A642F9D170BD6823002068230020D9
:1073A0006C23002068230020F0B4860746D0541ECA
:1073B000002A3CD0CAB2034602E014F1FF3436D3AF
:1073C00003F8012B9D07F8D1032C29D9CDB245EA4A
:1073D00005250F2C45EA054533D9A4F110063609D9
:1073E00003F1200707EB061703F1100242E90455E9
:1073F00042E902551032BA42F8D1721C14F00C0F57
:1074000003EB021204F00F0613D0331F23F0030323
:107410000433134442F8045B9342FBD106F00304A7
:107420002CB1C9B21C4403F8011B9C42FBD1F0BC37
:10743000704734461346002CF3D1F8E71446034650
:10744000C2E71A462646E0E72DE9F843224C2568B4
:107450000DB36C681F2C3BDC984691460F460646E0
:1074600088B1D5F8880028B3D0F8003140F82490CE
:107470000122A24000EB84011343022EC0F8003128
:10748000C1F8808010D0A31C01346C6045F82370D3
:107490000020BDE8F883114E114D2560002ED8D094
:1074A0003468C5F88840D4E7D0F804311A43C0F8EE
:1074B0000421E8E70B4B5BB14FF48470AFF300801D
:1074C00030B100236C68C0E94033C5F88800CDE7CF
:1074D0004FF0FF30DDE700BF18240020000000005F
:1074E0008C230020000000002DE9F04FDFF8908091
:1074F00083B0D8F8005001900F464FF0010A8DB1CB
:107500006C68D5F88860013C0CD405F1080B67B1B4
:107510002EB106F1800353F82430BB4205D014F19C
:10752000FF34F4D203B0BDE8F08F6B685BF8242021
:10753000013BA34216BF00236C604BF82430002AA5
:10754000EDD0D5F80490B6B1D6F800110AFA04F3DC
:107550000B4210D0D6F8040156F8241003420CD187
:10756000019890476B68D8F800204B4501D1AA429A
:10757000D5D01546C3E79047F4E708469047F1E7B2
:1075800018240020FEE700BF80B400AF00BFBD4656
:107590005DF8047B704780B400AF00BFBD465DF866
:1075A000047B704780B500AF084800F0A7FA292295
:1075B0000749084800F06EFA2A220749074800F0F8
:1075C00069FA00F0C5FA0023184680BD1C8302004A
:1075D0002C830200E9750200408302000576020058
:1075E00080B400AFFEE7000080B500AF2021034863
:1075F00000F02AFA0121024800F07AFE5C830200C2
:107600004424002080B582B002AF142300932523C8
:1076100000222A212A2000F0D5F900BFBD4680BDF6
:1076200080B582B000AF78607B681B787E2B09D86C
:107630007B681B781F2B05D97B681B78184600F0E8
:107640005DFB21E07B681B780D2B06D15C2000F0F0
:1076500055FB722000F052FB16E07B681B780A2B6A
:1076600006D15C2000F04AFB6E2000F047FB0BE0E7
:107670005C2000F043FB782000F040FB7B681B7827
:107680000221184600F0CCF800BF0837BD4680BD87
:1076900080B584B000AF78607B68FB60FB68002B2E
:1076A0000AD005E0F868FFF7BBFFFB680133FB6019
:1076B000FB681B78002BF5D100BF1037BD4680BD9D
:1076C00080B582B000AF78600B46FB70FB7803F0AA
:1076D0001003002B38D0FB78912B31D1272000F0FC
:1076E0000DFB7B687E2B08DC7B681F2B05DD7B6830
:1076F000DBB2184600F002FB1EE07B680D2B06D1C2
:107700005C2000F0FBFA722000F0F8FA14E07B68CD
:107710000A2B06D15C2000F0F1FA6E2000F0EEFAA0
:107720000AE05C2000F0EAFA782000F0E7FA7B68D3
:107730000221184600F074F8272000F0DFFA1EE05E
:10774000786800F020F81AE0FB7803F02003002BA3
:1077500004D07B68184600F02DF810E0302000F0CF
:10776000CDFA782000F0CAFA7A68FB7803F00F03AC
:10777000DBB25B00DBB21946104600F051F800BFE7
:107780000837BD4680BD80B584B000AF78607B68A7
:10779000FB607B68002B05DA2D2000F0AFFAFB6858
:1077A0005B42FB60F86800F005F800BF1037BD468B
:1077B00080BD000080B584B000AF78600123FB601D
:1077C00005E0FA6813469B0013445B00FB607A688F
:1077D000FB68B2FBF3F3092BF3D87A68FB68B2FBC2
:1077E000F3F10E4BA3FB0123DA0813469B0013446D
:1077F0005B00CA1AD3B23033DBB2184600F07EFA0F
:10780000FB68064AA2FB0323DB08FB60FB68002B36
:10781000E3D100BF00BF1037BD4680BDCDCCCCCC7E
:1078200080B584B000AF78600B46FB70FB78FB73CB
:10783000FB7B082B1FD90823FB731CE0FB7B013B60
:10784000FB73FB7B9B007A6822FA03F303F00F03C0
:10785000BB60BB68092B07DCBB68DBB23033DBB233
:10786000184600F04BFA06E0BB68DBB23733DBB2F8
:10787000184600F043FAFB7B002BDFD100BF00BFAE
:107880001037BD4680BD000080B582B000AF786083
:1078900039607868FFF7FCFE3A2000F02FFA3B6869
:1078A0001846FFF770FF3A2000F028FA054B5B6896
:1078B0001846FFF7EDFE3A2000F020FA00BF083727
:1078C000BD4680BD1C24002080B582B000AF78602A
:1078D000074B1B6879681846FFF7D6FF0548FFF786
:1078E000D7FE3A2000F00AFA00BF0837BD4680BD37
:1078F0001C2400207C83020080B500AF154B5B6A1E
:10790000002B05D0134BDB690133124AD36114E01D
:10791000104B1B6A002B0BD10E4B1B680D4A1269D2
:1079200011461846FFF7B0FF0B48FFF7B1FE04E021
:10793000084B9B690133074A9361064B00221A6288
:10794000044B00225A620A2000F0D8F900F012FA23
:1079500000BF80BD1C2400207483020080B582B06B
:1079600000AF78607B68002B20D01248FFF790FEB4
:10797000114B9B68002B16D01048FFF789FE0E4B69
:107980009B681846FFF784FE0B4BDB68002B07D083
:107990000B48FFF77DFE084BDB681846FFF778FEC3
:1079A0000448FFF775FE7868FFF772FE00BF0837DE
:1079B000BD4680BD848302001C2400200484020094
:1079C0001084020080B584B000AFF860B9607A60BE
:1079D0003B60194B1B6A002B03D1174B5B6A002BD2
:1079E00003D00121154800F083FCFA68BB689A4275
:1079F0001ED03868FFF768FF1148FFF749FE3B7E4D
:107A00001946F868FFF75CFE0E48FFF741FE3B7E23
:107A10001946B868FFF754FE7868FFF79FFF064BDA
:107A200001221A6200F0A6F90121044800F060FC6E
:107A300000BF1037BD4680BD1C2400204424002018
:107A4000888302009483020080B582B000AF786022
:107A500039600E4B1B6839681846FFF715FF0C4854
:107A6000FFF716FE7B68002B08D03A2000F046F99D
:107A7000202000F043F97868FFF70AFE0A2000F0A2
:107A80003DF900BF0837BD4680BD00BF1C24002063
:107A90003884020080B584B000AFF860B9607A60C5
:107AA000144ABB6853607B68124A1361114B5B69CF
:107AB0000133104A53610F4B00229A600D4B002294
:107AC000DA600D4800F00EFC0346002B03D1FFF7EF
:107AD0005BFDFB689847084800F004FC0346002B58
:107AE00001D1FFF758FDFFF707FF00BF1037BD4674
:107AF00080BD00BF1C2400204424002080B582B03B
:107B000000AF7860114A7B681360104B00225A6006
:107B10000E4B00221A610D4B00225A610B4B0022C2
:107B20009A610A4B0022DA61084B00221A62074B65
:107B300000225A62054B00229A60044B0022DA6050
:107B400000F0FAF800BF0837BD4680BD1C240020B5
:107B500080B500AF0A2000F0D1F81B48FFF798FD70
:107B60000A2000F0CBF8194B5B691846FFF70BFEB3
:107B70001748FFF78DFD154B9B691846FFF703FE6D
:107B80001448FFF785FD114BDB691846FFF7FBFD35
:107B90001148FFF77DFD0A2000F0B0F80B4B9B6900
:107BA000002B03D10D48FFF773FD02E00C48FFF7EF
:107BB0006FFD0A2000F0A2F800F0DCF800F0E8F811
:107BC000024B9B69184680BDCC8302001C24002018
:107BD000E4830200EC830200F88302007083020059
:107BE0007C83020080B483B000AF78600B467B805A
:107BF0007B887A6813441B68002B14BF0123002381
:107C0000DBB218460C37BD465DF8047B704780B484
:107C100083B000AF78607B680422C3F8002500BF02
:107C20000C37BD465DF8047B704780B483B000AF6D
:107C300078607B680022C3F8002500BF0C37BD4682
:107C40005DF8047B704780B485B000AFF860B96020
:107C50007A60FB687A68C3F81425FB68BA68C3F8D1
:107C60000C2500BF1437BD465DF8047B704780B417
:107C700083B000AF78600B46FB70FA787B68C3F87E
:107C80001C2500BF0C37BD465DF8047B704780B4EF
:107C900083B000AF78600B46FB70FB787A681344C2
:107CA00001221A6000BF0C37BD465DF8047B7047A7
:107CB00080B483B000AF78600B46FB701346BB7096
:107CC000FA78BB781343DBB21A467B68C3F86C259D
:107CD00000BF0C37BD465DF8047B704780B483B0AD
:107CE00000AF786039607B683A68C3F8242500BF2C
:107CF0000C37BD465DF8047B7047000080B582B04C
:107D000000AF0346FB71FB7919460A48FFF7AFFF46
:107D100000BF4FF48E710748FFF764FF034683F0FE
:107D20000103DBB2002BF4D100BF00BF0837BD4612
:107D300080BD00BF0020004080B500AF00220021C0
:107D40000A48FFF7B5FF0A490848FFF7C7FF0022B6
:107D500006210648FFF777FF0448FFF758FF082180
:107D60000248FFF794FF00BF80BD00BF0020004025
:107D700000E0D70180B500AF0C210448FFF787FF72
:107D800008210248FFF783FF00BF80BD00200040AC
:107D900080B500AF0C210448FFF779FF0248FFF7D8
:107DA00044FF00BF80BD00BF002000400649074AD5
:107DB000074B9B1A03DD043BC858D050FBDC00F096
:107DC0009FF9FFF765FA00004C84020000230020B1
:107DD00070230020FEE7FEE7FEE7FEE7FEE7FEE792
:107DE000FEE7FEE7FEE7FEE780B483B000AF1B4B83
:107DF0001B68B3F1FF3F0AD1194B1B68DBB27B60F4
:107E0000184B1B681B0903F00F033B6005E0134B85
:107E10001B687B60144B1B683B607B68082B15D18B
:107E20003B68032B12D801A252F823F03D7E0200DA
:107E3000417E0200457E0200497E0200012306E0E9
:107E4000012304E0012302E0012300E0002318469F
:107E50000C37BD465DF8047B704700BF3001001051
:107E6000E00F00F0E80F00F03401001080B483B0A0
:107E700000AF1B4B1B68B3F1FF3F0AD1194B1B68C6
:107E8000DBB27B60184B1B681B0903F00F033B60E0
:107E900005E0134B1B687B60144B1B683B607B68E1
:107EA000082B15D13B68032B12D801A252F823F0FE
:107EB000C17E0200C57E0200C97E0200CD7E0200A6
:107EC000012306E0012304E0012302E0012300E096
:107ED000002318460C37BD465DF8047B704700BF91
:107EE00030010010E00F00F0E80F00F03401001046
:107EF00080B483B000AF134B1B687B60124B1B68D0
:107F00003B607B68082B15D13B68032B12D801A27C
:107F100052F823F0257F0200297F02002D7F020006
:107F2000317F0200012306E0002304E0002302E089
:107F3000002300E0002318460C37BD465DF8047BA3
:107F4000704700BF300100103401001080B483B0CE
:107F500000AF134B1B687B60124B1B683B607B6858
:107F6000082B15D13B68032B12D801A252F823F03D
:107F7000817F0200857F0200897F02008D7F0200E1
:107F8000012306E0002304E0002302E0002300E0D8
:107F9000002318460C37BD465DF8047B704700BFD0
:107FA000300100103401001080B483B000AF134BD7
:107FB0001B687B60124B1B683B607B68082B15D1EC
:107FC0003B68032B12D801A252F823F0DD7F020098
:107FD000E17F0200E57F0200E97F0200012306E065
:107FE000002304E0002302E0002300E00023184601
:107FF0000C37BD465DF8047B704700BF30010010B0
:108000003401001080B483B000AF134B1B687B6059
:10801000124B1B683B607B68082B15D13B68032B18
:1080200012D801A252F823F0398002003D800200EC
:108030004180020045800200012306E0002304E0A5
:10804000002302E0002300E0002318460C37BD4661
:108050005DF8047B704700BF300100103401001050
:1080600080B483B000AF1B4B1B68B3F1FF3F0AD154
:10807000194B1B68DBB27B60184B1B681B0903F0B4
:108080000F033B6005E0134B1B687B60144B1B68C0
:108090003B607B68082B15D13B68032B12D801A2EB
:1080A00052F823F0B5800200B9800200BD800200C2
:1080B000C1800200012306E0012304E0012302E065
:1080C000012300E0002318460C37BD465DF8047B11
:1080D000704700BF30010010E00F00F0E80F00F023
:1080E0003401001080B400AF034B044A1A6000BF93
:1080F000BD465DF8047B7047642300200090D003E8
:1081000080B500AFFFF770FE0346002B0ED04FF096
:1081100080430022C3F80C214FF080430022C3F8B3
:1081200010214FF080430022C3F83825FFF79EFE50
:108130000346002B76D04FF08053624AD3F80434C4
:10814000C2F820354FF080535E4AD3F80834C2F8A5
:1081500024354FF080535B4AD3F80C34C2F82835ED
:108160004FF08053574AD3F81034C2F82C354FF0F3
:108170008053544AD3F81434C2F830354FF080534A
:10818000504AD3F81834C2F834354FF080534D4A72
:10819000D3F81C34C2F840354FF08053494AD3F825
:1081A0002034C2F844354FF08053464AD3F8243483
:1081B000C2F848354FF08053424AD3F82834C2F809
:1081C0004C354FF080533F4AD3F82C34C2F8503529
:1081D0004FF080533B4AD3F83034C2F854354FF057
:1081E0008053384AD3F83434C2F860354FF08053A6
:1081F000344AD3F83834C2F864354FF08053314AEA
:10820000D3F83C34C2F868354FF080532D4AD3F888
:108210004034C2F86C354FF080532A4AD3F84434C6
:10822000C2F87035FFF764FE0346002B02D0264BE0
:10823000264A1A60FFF78AFE0346002B03D0244B20
:10824000FB22C3F81825FFF7AFFE0346002B0AD028
:10825000204B1B6823F00F021F4B1B6803F00F031A
:108260001C4913430B60FFF7CDFE0346002B03D0E0
:108270001A4B4FF400721A60FFF7F2FE0346002B10
:108280000DD04FF08043D3F8003403F00103002BEE
:1082900005D04FF080436FF00102C3F80024104B6B
:1082A000D3F888300E4A43F47003C2F88830BFF325
:1082B0004F8F00BFBFF36F8F00BFFFF713FF00BFEB
:1082C00080BD00BF00C000408C56004048810300C4
:1082D00000F00040E40E00405802001040960240BA
:1082E00000ED00E0EC46A0E8F05F4FF000007047C2
:1082F000B0E8F05FE546080008BF0120704700BF06
:10830000F8B500BFF8BC08BC9E467047F8B500BF82
:10831000F8BC08BC9E467047042300205465737463
:10832000204578616D706C6573000000746573742E
:108330005F746861745375636365656473000000FE
:10834000746573745F73756363656564735769748B
:1083500068436F6E646974696F6E00005468697376
:10836000207465737420706173736564000000008D
:108370004F4B000050415353000000004641494C10
:10838000000000002E2000002045787065637465B1
:10839000642000002057617320000000496E666968
:1083A0006E697479000000004E65676174697665D6
:1083B00020496E66696E6974790000004E614E0056
:1083C00044657465726D696E617465002D2D2D2D87
:1083D0002D2D2D2D2D2D2D2D2D2D2D2D2D2D2D2DCD
:1083E0002D2D2D0020546573747320002046616983
:1083F0006C757265732000002049676E6F7265644A
:108400002000000046756E6374696F6E20000000E6
:1084100020417267756D656E7420000030000000A9
:108420006E616E00696E66009C830200A883020084
:10843000BC830200C0830200494E464F000000008A
:048440000000000038
:0884440044EEFF7F010000007F
:10844C0004230020000000000000000000000000D9
:10845C000000000000000000000000000000000010
:10846C000000000000000000000000000000000000
:10847C0000000000000000000000000000000000F0
:10848C0000000000000000000000000000000000E0
:10849C0000000000000000000000000000000000D0
:1084AC00000000000090D0036972020041720200CB
:0400000320007DADAF
:00000001FF
