:020000022000DC
:10700000000004202981020051810200197602004B
:1070100055810200578102005981020000000000E2
:107020000000000000000000000000005B81020082
:107030005D810200000000005F81020061810200AA
:1070400063810200638102006381020063810200A8
:107050006381020063810200638102006381020098
:107060006381020063810200638102006381020088
:107070006381020063810200638102006381020078
:107080006381020063810200638102006381020068
:107090006381020063810200638102006381020058
:1070A0006381020063810200638102006381020048
:1070B0006381020063810200000000000000000004
:1070C0006381020063810200638102006381020028
:1070D0006381020063810200638102006381020018
:1070E00063810200638102006381020000000000EE
:1070F00000000000638102000000000063810200C4
:10710000000000000000000000000000000000007F
:10711000000000000000000000000000000000006F
:10712000000000000000000000000000000000005F
:10713000000000000000000000000000000000004F
:10714000000000000000000000000000000000003F
:10715000000000000000000000000000000000002F
:10716000000000000000000000000000000000001F
:10717000000000000000000000000000000000000F
:1071800000000000000000000000000000000000FF
:1071900000000000000000000000000000000000EF
:1071A00000000000000000000000000000000000DF
:1071B00000000000000000000000000000000000CF
:1071C00000000000000000000000000000000000BF
:1071D00000000000000000000000000000000000AF
:1071E000000000000000000000000000000000009F
:1071F000000000000000000000000000000000008F
:107200000348044B834202D0034B03B11847704735
:10721000702300207023002000000000054806496C
:107220000B1AD90F01EBA301491002D0034B03B194
:1072300018477047702300207023002000000000D2
:1072400010B5064C237843B9FFF7DAFF044B13B1AE
:107250000448AFF300800123237010BD7023002089
:1072600000000000388A020008B5044B1BB1044935
:107270000448AFF30080BDE80840CFE700000000FD
:1072800074230020388A0200A3F5803A704700BFBB
:10729000154B002B08BF114B9D46FFF7F5FF002152
:1072A0008B460F461148124A121A00F07DF80C4B1B
:1072B000002B00D098470B4B002B00D098470020A4
:1072C000002104000D000B4800F016F800F048F80B
:1072D0002000290000F066F900F014F80000080012
:1072E00000000000000000000000042070230020C7
:1072F000A02400202D730200002301461A461846E0
:1073000000F0A2B808B5074B044613B1002100F005
:10731000EBF8054B1868836A03B19847204600F0E4
:1073200031F900BFE9740200B888020038B50A4C90
:107330000A4D641BA4100AD004F18043013B05EB05
:107340008305013C55F804399847002CF9D1BDE874
:10735000384001F0ABBA00BF702300206C2300203E
:1073600070B50D4E0D4D761BB61006D000240134BD
:1073700055F8043B9847A642F9D1094E094D761BB2
:1073800001F08EFAB61006D00024013455F8043B03
:107390009847A642F9D170BD6823002068230020D9
:1073A0006C23002068230020F0B4860746D0541ECA
:1073B000002A3CD0CAB2034602E014F1FF3436D3AF
:1073C00003F8012B9D07F8D1032C29D9CDB245EA4A
:1073D00005250F2C45EA054533D9A4F110063609D9
:1073E00003F1200707EB061703F1100242E90455E9
:1073F00042E902551032BA42F8D1721C14F00C0F57
:1074000003EB021204F00F0613D0331F23F0030323
:107410000433134442F8045B9342FBD106F00304A7
:107420002CB1C9B21C4403F8011B9C42FBD1F0BC37
:10743000704734461346002CF3D1F8E71446034650
:10744000C2E71A462646E0E72DE9F843224C2568B4
:107450000DB36C681F2C3BDC984691460F460646E0
:1074600088B1D5F8880028B3D0F8003140F82490CE
:107470000122A24000EB84011343022EC0F8003128
:10748000C1F8808010D0A31C01346C6045F82370D3
:107490000020BDE8F883114E114D2560002ED8D094
:1074A0003468C5F88840D4E7D0F804311A43C0F8EE
:1074B0000421E8E70B4B5BB14FF48470AFF300801D
:1074C00030B100236C68C0E94033C5F88800CDE7CF
:1074D0004FF0FF30DDE700BF18240020000000005F
:1074E0008C230020000000002DE9F04FDFF8908091
:1074F00083B0D8F8005001900F464FF0010A8DB1CB
:107500006C68D5F88860013C0CD405F1080B67B1B4
:107510002EB106F1800353F82430BB4205D014F19C
:10752000FF34F4D203B0BDE8F08F6B685BF8242021
:10753000013BA34216BF00236C604BF82430002AA5
:10754000EDD0D5F80490B6B1D6F800110AFA04F3DC
:107550000B4210D0D6F8040156F8241003420CD187
:10756000019890476B68D8F800204B4501D1AA429A
:10757000D5D01546C3E79047F4E708469047F1E7B2
:1075800018240020FEE700BF80B500AF01F01AF913
:1075900000BF80BD80B400AF00BFBD465DF8047B76
:1075A0007047000080B500AF104800F065FC2A224B
:1075B0000F49104800F02CFC2B220F490F4800F017
:1075C00027FC2C220E490F4800F022FC2D220E49E8
:1075D0000E4800F01DFC2E220D490E4800F018FC4C
:1075E00000F074FC0023184680BD00BFBC88020078
:1075F000D088020039760200F0880200A7760200E7
:107600001089020015770200308902008577020098
:1076100050890200F977020080B400AFFEE7000055
:1076200080B400AF034B9B681846BD465DF8047BF1
:10763000704700BF10E000E080B586B002AF0023C5
:10764000FB600223BB60B968F86801F0C6F8786097
:10765000142300932423002279684FF0FF3000F0B8
:10766000EBFA0123FB60B968F86801F0B6F87860BE
:1076700014230093272300227968002000F0DCFA0D
:107680000223FB60B968F86801F0A7F8786014235A
:1076900000932A2300227968002000F0CDFA00BF71
:1076A0001037BD4680BD80B586B002AF0A23FB60AF
:1076B0000223BB60B968F86801F08FF87860142382
:1076C00000933223002279684FF0FF3000F0B4FAC3
:1076D0000923FB60B968F86801F07FF8786014232B
:1076E0000093352300227968002000F0A5FA0823D2
:1076F000FB60B968F86801F070F8786014230093B3
:10770000382300227968002000F096FA00BF103775
:10771000BD4680BD80B586B002AF0223FB6000236A
:10772000BB60B968F86801F058F8786014230093DA
:107730004023002279684FF0FF3000F07DFA0123EA
:10774000BB60B968F86801F048F8786014230093CA
:107750004323002279684FF0FF3000F06DFA0223D6
:10776000BB60B968F86801F038F8786014230093BA
:10777000462300227968002000F05EFA00BF10372F
:10778000BD4680BD80B586B002AF0223FB6041F2EA
:107790008833BB60B968F86801F01FF8786014237B
:1077A00000934E23002279684FF0FF3000F044FA36
:1077B00041F28733BB60B968F86801F00EF8786071
:1077C00014230093512300227968002000F034FA3A
:1077D00041F28633BB60B968F86800F0FEFF78605C
:1077E00014230093542300227968002000F024FA27
:1077F00000BF1037BD4680BD90B587B002AF4FF4D3
:10780000FA73BB600123FB603DE0FFF709FF78607E
:10781000FB68B968184600F0E0FF38601423009355
:107820005E2300223968002000F006FAFB68BA687F
:1078300002FB03F3323B1C46FFF7F2FE02467B6875
:10784000D31A1946242301935F23009300230222B5
:10785000204600F033FAFB68BA6802FB03F33233C8
:107860001C46FFF7DDFE02467B68D31A1946242327
:1078700001936023009300230422204600F01EFAA7
:10788000FB680133FB60FB68042BBEDD00BF00BF5B
:107890001437BD4690BD80B582B000AF78607B687C
:1078A0001B787E2B09D87B681B781F2B05D97B683A
:1078B0001B78184600F0E0FB21E07B681B780D2B5D
:1078C00006D15C2000F0D8FB722000F0D5FB16E05A
:1078D0007B681B780A2B06D15C2000F0CDFB6E2064
:1078E00000F0CAFB0BE05C2000F0C6FB782000F043
:1078F000C3FB7B681B780221184600F0CBF800BF61
:107900000837BD4680BD80B584B000AF78607B6825
:10791000FB60FB68002B0AD005E0F868FFF7BBFFAF
:10792000FB680133FB60FB681B78002BF5D100BFBF
:107930001037BD4680BD80B582B000AF78600B4681
:10794000FB70FB7803F01003002B38D0FB78912BF1
:1079500031D1272000F090FB7B687E2B08DC7B6810
:107960001F2B05DD7B68DBB2184600F085FB1EE0AF
:107970007B680D2B06D15C2000F07EFB722000F0AE
:107980007BFB14E07B680A2B06D15C2000F074FBC3
:107990006E2000F071FB0AE05C2000F06DFB7820A7
:1079A00000F06AFB7B680221184600F073F827207C
:1079B00000F062FB1EE0786800F020F81AE0FB7827
:1079C00003F02003002B04D07B68184600F02CF84D
:1079D00010E0302000F050FB782000F04DFB7A687A
:1079E000FB7803F00F03DBB25B00DBB219461046F5
:1079F00000F050F800BF0837BD4680BD80B584B0A8
:107A000000AF78607B68FB607B68002B05DA2D2077
:107A100000F032FBFB685B42FB60F86800F004F8A2
:107A200000BF1037BD4680BD80B584B000AF786020
:107A30000123FB6005E0FA6813469B0013445B00DA
:107A4000FB607A68FB68B2FBF3F3092BF3D87A6822
:107A5000FB68B2FBF3F10E4BA3FB0123DA081346DC
:107A60009B0013445B00CA1AD3B23033DBB2184612
:107A700000F002FBFB68064AA2FB0323DB08FB6065
:107A8000FB68002BE3D100BF00BF1037BD4680BDAF
:107A9000CDCCCCCC80B584B000AF78600B46FB7009
:107AA000FB78FB73FB7B082B1FD90823FB731CE0BF
:107AB000FB7B013BFB73FB7B9B007A6822FA03F3A1
:107AC00003F00F03BB60BB68092B07DCBB68DBB2AC
:107AD0003033DBB2184600F0CFFA06E0BB68DBB209
:107AE0003733DBB2184600F0C7FAFB7B002BDFD13F
:107AF00000BF00BF1037BD4680BD000080B582B01A
:107B000000AF786039607868FFF7FDFE3A2000F03A
:107B1000B3FA3B681846FFF771FF3A2000F0ACFA61
:107B2000054B5B681846FFF7EEFE3A2000F0A4FA1A
:107B300000BF0837BD4680BD1C24002080B582B040
:107B400000AF7860074B1B6879681846FFF7D6FFCF
:107B50000548FFF7D8FE3A2000F08EFA00BF08373C
:107B6000BD4680BD1C2400207489020080B500AF92
:107B7000154B5B6A002B05D0134BDB690133124AAE
:107B8000D36114E0104B1B6A002B0BD10E4B1B680A
:107B90000D4A126911461846FFF7B0FF0B48FFF770
:107BA000B2FE04E0084B9B690133074A9361064B20
:107BB00000221A62044B00225A620A2000F05CFA8A
:107BC00000F096FA00BF80BD1C2400206C890200E2
:107BD00080B582B000AF78607B68002B20D012485F
:107BE000FFF791FE114B9B68002B16D01048FFF752
:107BF0008AFE0E4B9B681846FFF785FE0B4BDB6831
:107C0000002B07D00B48FFF77EFE084BDB681846B9
:107C1000FFF779FE0448FFF776FE7868FFF773FEFA
:107C200000BF0837BD4680BD7C8902001C240020AF
:107C3000208A02002C8A020080B584B000AFF86070
:107C4000B9607A603B60194B1B6A002B03D1174B5C
:107C50005B6A002B03D00121154800F019FEFA6879
:107C6000BB689A421ED03868FFF768FF1148FFF7DB
:107C70004AFE3B7E1946F868FFF75DFE0E48FFF7A7
:107C800042FE3B7E1946B868FFF755FE7868FFF75D
:107C90009FFF064B01221A6200F02AFA01210448D4
:107CA00000F0F6FD00BF1037BD4680BD1C2400204B
:107CB00044240020808902008C89020080B586B0AF
:107CC00000AFF860B9603B601346FB7100237B6135
:107CD000484B1B6A002B03D1464B5B6A002B03D039
:107CE0000121454800F0D4FDFA68BB689A4204D1EE
:107CF000FB7903F00103002B77D1FA68BB689A4245
:107D000001D101237B6197F8243003F01003002B8D
:107D100016D0BA68FB689A4206DDFB7903F00403CB
:107D2000002B01D001237B61BA68FB689A421DDAFF
:107D3000FB7903F00203002B18D001237B6115E0CF
:107D4000BA68FB689A4206D9FB7903F00403002B5A
:107D500001D001237B61BA68FB689A4206D2FB79A5
:107D600003F00203002B01D001237B617B69002B10
:107D70003CD0386AFFF7E2FE2048FFF7C4FD97F8D1
:107D800024301946B868FFF7D6FDFB7903F00203EB
:107D9000002B02D01A48FFF7B6FDFB7903F004036D
:107DA000002B02D01748FFF7AEFDFB7903F001036B
:107DB000002B02D01448FFF7A6FDFB79002B02D15F
:107DC0001248FFF7A0FD97F824301946F868FFF72E
:107DD000B2FD3868FFF7FCFE064B01221A6200F084
:107DE00087F90121044800F053FD00BF1837BD4654
:107DF00080BD00BF1C240020442400208089020094
:107E000094890200AC890200C0890200D089020076
:107E100080B584B000AFF860B9607A60144ABB687E
:107E200053607B68124A1361114B5B690133104A3E
:107E300053610F4B00229A600D4B0022DA600D480F
:107E400000F020FD0346002B03D1FFF79DFBFB68EC
:107E50009847084800F016FD0346002B01D1FFF7B4
:107E600099FBFFF783FE00BF1037BD4680BD00BF02
:107E70001C2400204424002080B582B000AF78602C
:107E8000114A7B681360104B00225A600E4B00228F
:107E90001A610D4B00225A610B4B00229A610A4B6A
:107EA0000022DA61084B00221A62074B00225A6254
:107EB000054B00229A60044B0022DA6000F0FAF8C9
:107EC00000BF0837BD4680BD1C24002080B500AF30
:107ED0000A2000F0D1F81B48FFF715FD0A2000F03A
:107EE000CBF8194B5B691846FFF788FD1748FFF779
:107EF0000AFD154B9B691846FFF780FD1448FFF7F4
:107F000002FD114BDB691846FFF778FD1148FFF7BA
:107F1000FAFC0A2000F0B0F80B4B9B69002B03D150
:107F20000D48FFF7F0FC02E00C48FFF7ECFC0A20DC
:107F300000F0A2F800F0DCF800F0E8F8024B9B69D2
:107F4000184680BDE88902001C240020008A020037
:107F5000088A0200148A02006889020074890200FB
:107F600080B483B000AF78600B467B807B887A68F2
:107F700013441B68002B14BF01230023DBB21846F7
:107F80000C37BD465DF8047B704780B483B000AF0A
:107F900078607B680422C3F8002500BF0C37BD461B
:107FA0005DF8047B704780B483B000AF78607B6875
:107FB0000022C3F8002500BF0C37BD465DF8047BE6
:107FC000704780B485B000AFF860B9607A60FB6834
:107FD0007A68C3F81425FB68BA68C3F80C2500BF9B
:107FE0001437BD465DF8047B704780B483B000AFA2
:107FF00078600B46FB70FA787B68C3F81C2500BFDD
:108000000C37BD465DF8047B704780B483B000AF89
:1080100078600B46FB70FB787A68134401221A6083
:1080200000BF0C37BD465DF8047B704780B483B059
:1080300000AF78600B46FB701346BB70FA78BB78D4
:108040001343DBB21A467B68C3F86C2500BF0C37BC
:10805000BD465DF8047B704780B483B000AF7860A4
:1080600039607B683A68C3F8242500BF0C37BD46E9
:108070005DF8047B7047000080B582B000AF034616
:10808000FB71FB7919460A48FFF7AFFF00BF4FF4B9
:108090008E710748FFF764FF034683F00103DBB2EC
:1080A000002BF4D100BF00BF0837BD4680BD00BF24
:1080B0000020004080B500AF002200210A48FFF7F1
:1080C000B5FF0A490848FFF7C7FF00220621064806
:1080D000FFF777FF0448FFF758FF08210248FFF732
:1080E00094FF00BF80BD00BF0020004000E0D7012A
:1080F00080B500AF0C210448FFF787FF0821024834
:10810000FFF783FF00BF80BD0020004080B500AFB7
:108110000C210448FFF779FF0248FFF744FF00BF36
:1081200080BD00BF002000400649074A074B9B1A4C
:1081300003DD043BC858D050FBDC00F09FF9FFF78B
:10814000A7F80000448A02000023002070230020CA
:10815000FEE7FEE7FEE7FEE7FEE7FEE7FEE7FEE7F7
:10816000FEE7FEE780B483B000AF1B4B1B68B3F1A2
:10817000FF3F0AD1194B1B68DBB27B60184B1B68B1
:108180001B0903F00F033B6005E0134B1B687B608A
:10819000144B1B683B607B68082B15D13B68032B95
:1081A00012D801A252F823F0B9810200BD81020069
:1081B000C1810200C5810200012306E0012304E021
:1081C000012302E0012300E0002318460C37BD46DE
:1081D0005DF8047B704700BF30010010E00F00F035
:1081E000E80F00F03401001080B483B000AF1B4BE7
:1081F0001B68B3F1FF3F0AD1194B1B68DBB27B60F0
:10820000184B1B681B0903F00F033B6005E0134B81
:108210001B687B60144B1B683B607B68082B15D187
:108220003B68032B12D801A252F823F03D820200D2
:10823000418202004582020049820200012306E0D9
:10824000012304E0012302E0012300E0002318469B
:108250000C37BD465DF8047B704700BF300100104D
:10826000E00F00F0E80F00F03401001080B483B09C
:1082700000AF134B1B687B60124B1B683B607B6835
:10828000082B15D13B68032B12D801A252F823F01A
:10829000A1820200A5820200A9820200AD82020032
:1082A000012306E0002304E0002302E0002300E0B5
:1082B000002318460C37BD465DF8047B704700BFAD
:1082C000300100103401001080B483B000AF134BB4
:1082D0001B687B60124B1B683B607B68082B15D1C9
:1082E0003B68032B12D801A252F823F0FD82020052
:1082F000018302000583020009830200012306E0D6
:10830000002304E0002302E0002300E000231846DD
:108310000C37BD465DF8047B704700BF300100108C
:108320003401001080B483B000AF134B1B687B6036
:10833000124B1B683B607B68082B15D13B68032BF5
:1083400012D801A252F823F0598302005D83020083
:108350006183020065830200012306E0002304E03C
:10836000002302E0002300E0002318460C37BD463E
:108370005DF8047B704700BF30010010340100102D
:1083800080B483B000AF134B1B687B60124B1B683B
:108390003B607B68082B15D13B68032B12D801A2E8
:1083A00052F823F0B5830200B9830200BD830200B6
:1083B000C1830200012306E0002304E0002302E061
:1083C000002300E0002318460C37BD465DF8047B0F
:1083D000704700BF300100103401001080B483B03A
:1083E00000AF1B4B1B68B3F1FF3F0AD1194B1B6851
:1083F000DBB27B60184B1B681B0903F00F033B606B
:1084000005E0134B1B687B60144B1B683B607B686B
:10841000082B15D13B68032B12D801A252F823F088
:108420003184020035840200398402003D84020058
:10843000012306E0012304E0012302E0012300E020
:10844000002318460C37BD465DF8047B704700BF1B
:1084500030010010E00F00F0E80F00F034010010D0
:1084600080B400AF034B044A1A6000BFBD465DF8FC
:10847000047B7047642300200090D00380B500AFD8
:10848000FFF770FE0346002B0ED04FF08043002212
:10849000C3F80C214FF080430022C3F810214FF0A5
:1084A00080430022C3F83825FFF79EFE0346002BC9
:1084B00076D04FF08053624AD3F80434C2F82035A6
:1084C0004FF080535E4AD3F80834C2F824354FF099
:1084D00080535B4AD3F80C34C2F828354FF08053F0
:1084E000574AD3F81034C2F82C354FF08053544A11
:1084F000D3F81434C2F830354FF08053504AD3F8D3
:108500001834C2F834354FF080534D4AD3F81C3438
:10851000C2F840354FF08053494AD3F82034C2F8AE
:1085200044354FF08053464AD3F82434C2F84835D6
:108530004FF08053424AD3F82834C2F84C354FF0FC
:1085400080533F4AD3F82C34C2F850354FF0805353
:108550003B4AD3F83034C2F854354FF08053384A90
:10856000D3F83434C2F860354FF08053344AD3F82E
:108570003834C2F864354FF08053314AD3F83C3474
:10858000C2F868354FF080532D4AD3F84034C2F812
:108590006C354FF080532A4AD3F84434C2F8703512
:1085A000FFF764FE0346002B02D0264B264A1A60D2
:1085B000FFF78AFE0346002B03D0244BFB22C3F8AF
:1085C0001825FFF7AFFE0346002B0AD0204B1B688F
:1085D00023F00F021F4B1B6803F00F031C491343CA
:1085E0000B60FFF7CDFE0346002B03D01A4B4FF470
:1085F00000721A60FFF7F2FE0346002B0DD04FF019
:108600008043D3F8003403F00103002B05D04FF072
:1086100080436FF00102C3F80024104BD3F8883078
:108620000E4A43F47003C2F88830BFF34F8F00BF87
:10863000BFF36F8F00BFFFF713FF00BF80BD00BF08
:1086400000C000408C5600404881030000F000400C
:10865000E40E0040580200104096024000ED00E099
:1086600080B483B000AF78607B681B681F2B02D892
:108670004FF0A04306E07B681B6803F01F027B6895
:108680001A60034B18460C37BD465DF8047B7047F3
:108690000003005080B584B000AF786008461146F2
:1086A0001A460346FB700B46BB7013467B703B1D9E
:1086B0001846FFF7D5FFF860FA78BB785B001A43DD
:1086C0007B789B001A433B7E1B0242EA03013B7FFF
:1086D0001B047A681943FB6802F5E07243F8221024
:1086E00000BF1037BD4680BD80B584B002AF786052
:1086F00000230193002300930023012201217868C5
:10870000FFF7C8FF00BF0837BD4680BD80B584B005
:1087100000AF78603B1D1846FFF7A2FFF8607B684A
:10872000012202FA03F31946F86800F019F800BFB5
:108730001037BD4680BD80B584B000AF78603B1D6A
:108740001846FFF78DFFF8607B68012202FA03F3F9
:108750001946F86800F013F800BF1037BD4680BD19
:1087600080B483B000AF786039607B683A68C3F842
:10877000082500BF0C37BD465DF8047B704780B408
:1087800083B000AF786039607B683A68C3F80C2525
:1087900000BF0C37BD465DF8047B704780B483B0E2
:1087A00000AF78607B68002B06D07B68013B7B6064
:1087B0007B68002BF9D100E000BF0C37BD465DF8A7
:1087C000047B704780B500AF0D20FFF78DFF0D20B3
:1087D000FFF7B1FF0023184680BD80B584B000AF1D
:1087E000786039607B68002B02D14FF0FF3330E0B6
:1087F0007B68092B02D94FF0FF332AE03B68002B3E
:1088000002D14FF0FF3324E03B6841F287329342BC
:1088100002D94FF0FF331CE03B685B083B6000204F
:1088200000F01BF80023FB600EE0012000F015F8BB
:108830003868FFF7B3FF002000F00FF83868FFF743
:10884000ADFFFB680133FB60FB687A689A42ECD8A5
:10885000002318461037BD4680BD80B582B000AFFA
:108860000346FB71FB79002B03D00D20FFF74EFF71
:1088700002E00D20FFF75FFF002318460837BD46D2
:1088800080BD0000EC46A0E8F05F4FF000007047AC
:10889000B0E8F05FE546080008BF0120704700BF60
:1088A000F8B500BFF8BC08BC9E467047F8B500BFDD
:1088B000F8BC08BC9E467047042300206D6F6475A9
:1088C0006C65732F6C65646374726C2E63000000BA
:1088D000746573745F636865636B5F6D696E5F6E0B
:1088E000756D6265725F626C696E6B73000000008B
:1088F000746573745F636865636B5F6D61785F6EE9
:10890000756D6265725F626C696E6B73000000006A
:10891000746573745F636865636B5F6D696E5F62D6
:108920006C696E6B5F6475726174696F6E000000D4
:10893000746573745F636865636B5F6D61785F62B4
:108940006C696E6B5F6475726174696F6E000000B4
:10895000746573745F746F74616C5F626C696E6B65
:108960005F6C656E677468004F4B00005041535355
:10897000000000004641494C000000002E2000008D
:10898000204578706563746564200000205761732A
:108990002000000020746F2062652067726561749A
:1089A0006572207468616E200000000020746F20E2
:1089B0006265206C657373207468616E200000002E
:1089C0006F7220657175616C20746F20000000006B
:1089D00020746F206265206E6F7420657175616C04
:1089E00020746F20000000002D2D2D2D2D2D2D2DFC
:1089F0002D2D2D2D2D2D2D2D2D2D2D2D2D2D2D00D4
:108A00002054657374732000204661696C7572652B
:108A1000732000002049676E6F72656420000000BB
:108A200046756E6374696F6E2000000020417267A6
:0C8A3000756D656E7420000000000000F1
:088A3C004CE8FF7F010000007F
:108A440004230020000000000000000000000000DB
:108A54000000000000000000000000000000000012
:108A64000000000000000000000000000000000002
:108A740000000000000000000000000000000000F2
:108A840000000000000000000000000000000000E2
:108A940000000000000000000000000000000000D2
:108AA400000000000090D0036972020041720200CD
:04000003200081292F
:00000001FF
