:020000022000DC
:1070000000000420BD750200E5750200B77502009E
:10701000E9750200EB750200ED750200000000004A
:10702000000000000000000000000000EF750200FA
:10703000F175020000000000F3750200F575020012
:10704000F7750200F7750200F7750200F775020088
:10705000F7750200F7750200F7750200F775020078
:10706000F7750200F7750200F7750200F775020068
:10707000F7750200F7750200F7750200F775020058
:10708000F7750200F7750200F7750200F775020048
:10709000F7750200F7750200F7750200F775020038
:1070A000F7750200F7750200F7750200F775020028
:1070B000F7750200F77502000000000000000000F4
:1070C000F7750200F7750200F7750200F775020008
:1070D000F7750200F7750200F7750200F7750200F8
:1070E000F7750200F7750200F77502000000000056
:1070F00000000000F775020000000000F7750200B4
:10710000000000000000000000000000000000007F
:10711000000000000000000000000000000000006F
:10712000000000000000000000000000000000005F
:10713000000000000000000000000000000000004F
:10714000000000000000000000000000000000003F
:10715000000000000000000000000000000000002F
:10716000000000000000000000000000000000001F
:10717000000000000000000000000000000000000F
:1071800000000000000000000000000000000000FF
:1071900000000000000000000000000000000000EF
:1071A00000000000000000000000000000000000DF
:1071B00000000000000000000000000000000000CF
:1071C00000000000000000000000000000000000BF
:1071D00000000000000000000000000000000000AF
:1071E000000000000000000000000000000000009F
:1071F000000000000000000000000000000000008F
:107200000348044B834202D0034B03B11847704735
:10721000702300207023002000000000054806496C
:107220000B1AD90F01EBA301491002D0034B03B194
:1072300018477047702300207023002000000000D2
:1072400010B5064C237843B9FFF7DAFF044B13B1AE
:107250000448AFF300800123237010BD7023002089
:1072600000000000347D020008B5044B1BB1044946
:107270000448AFF30080BDE80840CFE700000000FD
:1072800074230020347D0200A3F5803A704700BFCC
:10729000154B002B08BF114B9D46FFF7F5FF002152
:1072A0008B460F461148124A121A00F07DF80C4B1B
:1072B000002B00D098470B4B002B00D098470020A4
:1072C000002104000D000B4800F016F800F048F80B
:1072D0002000290000F058F900F014F80000080020
:1072E00000000000000000000000042070230020C7
:1072F0001C2400202D730200002301461A46184664
:1073000000F0A2B808B5074B044613B1002100F005
:10731000EBF8054B1868836A03B19847204600F0E4
:1073200031F900BFE9740200307D020038B50A4C23
:107330000A4D641BA4100AD004F18043013B05EB05
:107340008305013C55F804399847002CF9D1BDE874
:10735000384000F0E7BC00BF702300206C23002001
:1073600070B50D4E0D4D761BB61006D000240134BD
:1073700055F8043B9847A642F9D1094E094D761BB2
:1073800000F0CAFCB61006D00024013455F8043BC6
:107390009847A642F9D170BD6823002068230020D9
:1073A0006C23002068230020F0B4860746D0541ECA
:1073B000002A3CD0CAB2034602E014F1FF3436D3AF
:1073C00003F8012B9D07F8D1032C29D9CDB245EA4A
:1073D00005250F2C45EA054533D9A4F110063609D9
:1073E00003F1200707EB061703F1100242E90455E9
:1073F00042E902551032BA42F8D1721C14F00C0F57
:1074000003EB021204F00F0613D0331F23F0030323
:107410000433134442F8045B9342FBD106F00304A7
:107420002CB1C9B21C4403F8011B9C42FBD1F0BC37
:10743000704734461346002CF3D1F8E71446034650
:10744000C2E71A462646E0E72DE9F843224C2568B4
:107450000DB36C681F2C3BDC984691460F460646E0
:1074600088B1D5F8880028B3D0F8003140F82490CE
:107470000122A24000EB84011343022EC0F8003128
:10748000C1F8808010D0A31C01346C6045F82370D3
:107490000020BDE8F883114E114D2560002ED8D094
:1074A0003468C5F88840D4E7D0F804311A43C0F8EE
:1074B0000421E8E70B4B5BB14FF48470AFF300801D
:1074C00030B100236C68C0E94033C5F88800CDE7CF
:1074D0004FF0FF30DDE700BF18240020000000005F
:1074E0008C230020000000002DE9F04FDFF8908091
:1074F00083B0D8F8005001900F464FF0010A8DB1CB
:107500006C68D5F88860013C0CD405F1080B67B1B4
:107510002EB106F1800353F82430BB4205D014F19C
:10752000FF34F4D203B0BDE8F08F6B685BF8242021
:10753000013BA34216BF00236C604BF82430002AA5
:10754000EDD0D5F80490B6B1D6F800110AFA04F3DC
:107550000B4210D0D6F8040156F8241003420CD187
:10756000019890476B68D8F800204B4501D1AA429A
:10757000D5D01546C3E79047F4E708469047F1E7B2
:1075800018240020FEE700BF80B500AF00F064FBC8
:107590000221052000F06BFB0321042000F067FBB3
:1075A0000421032000F063FB0521022000F05FFBB3
:1075B0000023184680BD80B400AFFEE70649074AA5
:1075C000074B9B1A03DD043BC858D050FBDC00F08E
:1075D0009FF9FFF75DFE0000407D020000230020C0
:1075E00070230020FEE7FEE7FEE7FEE7FEE7FEE78A
:1075F000FEE7FEE7FEE7FEE780B483B000AF1B4B7B
:107600001B68B3F1FF3F0AD1194B1B68DBB27B60EB
:10761000184B1B681B0903F00F033B6005E0134B7D
:107620001B687B60144B1B683B607B68082B15D183
:107630003B68032B12D801A252F823F04D760200CA
:10764000517602005576020059760200012306E0C9
:10765000012304E0012302E0012300E00023184697
:107660000C37BD465DF8047B704700BF3001001049
:10767000E00F00F0E80F00F03401001080B483B098
:1076800000AF1B4B1B68B3F1FF3F0AD1194B1B68BE
:10769000DBB27B60184B1B681B0903F00F033B60D8
:1076A00005E0134B1B687B60144B1B683B607B68D9
:1076B000082B15D13B68032B12D801A252F823F0F6
:1076C000D1760200D5760200D9760200DD7602007E
:1076D000012306E0012304E0012302E0012300E08E
:1076E000002318460C37BD465DF8047B704700BF89
:1076F00030010010E00F00F0E80F00F0340100103E
:1077000080B483B000AF134B1B687B60124B1B68C7
:107710003B607B68082B15D13B68032B12D801A274
:1077200052F823F035770200397702003D770200E6
:1077300041770200012306E0002304E0002302E079
:10774000002300E0002318460C37BD465DF8047B9B
:10775000704700BF300100103401001080B483B0C6
:1077600000AF134B1B687B60124B1B683B607B6850
:10777000082B15D13B68032B12D801A252F823F035
:107780009177020095770200997702009D770200B9
:10779000012306E0002304E0002302E0002300E0D0
:1077A000002318460C37BD465DF8047B704700BFC8
:1077B000300100103401001080B483B000AF134BCF
:1077C0001B687B60124B1B683B607B68082B15D1E4
:1077D0003B68032B12D801A252F823F0ED77020088
:1077E000F1770200F5770200F9770200012306E045
:1077F000002304E0002302E0002300E000231846F9
:107800000C37BD465DF8047B704700BF30010010A7
:107810003401001080B483B000AF134B1B687B6051
:10782000124B1B683B607B68082B15D13B68032B10
:1078300012D801A252F823F0497802004D780200D4
:107840005178020055780200012306E0002304E08D
:10785000002302E0002300E0002318460C37BD4659
:107860005DF8047B704700BF300100103401001048
:1078700080B483B000AF1B4B1B68B3F1FF3F0AD14C
:10788000194B1B68DBB27B60184B1B681B0903F0AC
:107890000F033B6005E0134B1B687B60144B1B68B8
:1078A0003B607B68082B15D13B68032B12D801A2E3
:1078B00052F823F0C5780200C9780200CD780200A2
:1078C000D1780200012306E0012304E0012302E055
:1078D000012300E0002318460C37BD465DF8047B09
:1078E000704700BF30010010E00F00F0E80F00F01B
:1078F0003401001080B400AF034B044A1A6000BF8B
:10790000BD465DF8047B7047642300200090D003DF
:1079100080B500AFFFF770FE0346002B0ED04FF08E
:1079200080430022C3F80C214FF080430022C3F8AB
:1079300010214FF080430022C3F83825FFF79EFE48
:107940000346002B76D04FF08053624AD3F80434BC
:10795000C2F820354FF080535E4AD3F80834C2F89D
:1079600024354FF080535B4AD3F80C34C2F82835E5
:107970004FF08053574AD3F81034C2F82C354FF0EB
:107980008053544AD3F81434C2F830354FF0805342
:10799000504AD3F81834C2F834354FF080534D4A6A
:1079A000D3F81C34C2F840354FF08053494AD3F81D
:1079B0002034C2F844354FF08053464AD3F824347B
:1079C000C2F848354FF08053424AD3F82834C2F801
:1079D0004C354FF080533F4AD3F82C34C2F8503521
:1079E0004FF080533B4AD3F83034C2F854354FF04F
:1079F0008053384AD3F83434C2F860354FF080539E
:107A0000344AD3F83834C2F864354FF08053314AE1
:107A1000D3F83C34C2F868354FF080532D4AD3F880
:107A20004034C2F86C354FF080532A4AD3F84434BE
:107A3000C2F87035FFF764FE0346002B02D0264BD8
:107A4000264A1A60FFF78AFE0346002B03D0244B18
:107A5000FB22C3F81825FFF7AFFE0346002B0AD020
:107A6000204B1B6823F00F021F4B1B6803F00F0312
:107A70001C4913430B60FFF7CDFE0346002B03D0D8
:107A80001A4B4FF400721A60FFF7F2FE0346002B08
:107A90000DD04FF08043D3F8003403F00103002BE6
:107AA00005D04FF080436FF00102C3F80024104B63
:107AB000D3F888300E4A43F47003C2F88830BFF31D
:107AC0004F8F00BFBFF36F8F00BFFFF713FF00BFE3
:107AD00080BD00BF00C000408C56004048810300BC
:107AE00000F00040E40E00405802001040960240B2
:107AF00000ED00E080B483B000AF78607B681B6865
:107B00001F2B02D84FF0A04306E07B681B6803F0F0
:107B10001F027B681A60034B18460C37BD465DF8A0
:107B2000047B70470003005080B584B000AF7860DC
:107B3000084611461A460346FB700B46BB701346B7
:107B40007B703B1D1846FFF7D5FFF860FA78BB78CD
:107B50005B001A437B789B001A433B7E1B0242EA80
:107B600003013B7F1B047A681943FB6802F5E0724E
:107B700043F8221000BF1037BD4680BD80B584B0E9
:107B800002AF7860002301930023009300230122B9
:107B900001217868FFF7C8FF00BF0837BD4680BDE8
:107BA00080B584B000AF78603B1D1846FFF7A2FF98
:107BB000F8607B68012202FA03F31946F86800F0C6
:107BC00019F800BF1037BD4680BD80B584B000AF46
:107BD00078603B1D1846FFF78DFFF8607B68012237
:107BE00002FA03F31946F86800F013F800BF1037E3
:107BF000BD4680BD80B483B000AF786039607B68DB
:107C00003A68C3F8082500BF0C37BD465DF8047B11
:107C1000704780B483B000AF786039607B683A68A1
:107C2000C3F80C2500BF0C37BD465DF8047B7047D8
:107C300080B483B000AF78607B68002B06D07B688F
:107C4000013B7B607B68002BF9D100E000BF0C3763
:107C5000BD465DF8047B704780B500AF0D20FFF78F
:107C60008DFF0D20FFF7B1FF0023184680BD80B5C2
:107C700084B000AF786039607B68002B02D14FF090
:107C8000FF3330E07B68092B02D94FF0FF332AE045
:107C90003B68002B02D14FF0FF3324E03B6841F2F8
:107CA0008732934202D94FF0FF331CE03B685B08F8
:107CB0003B60002000F01BF80023FB600EE0012079
:107CC00000F015F83868FFF7B3FF002000F00FF858
:107CD0003868FFF7ADFFFB680133FB60FB687A682B
:107CE0009A42ECD8002318461037BD4680BD80B5B7
:107CF00082B000AF0346FB71FB79002B03D00D204F
:107D0000FFF74EFF02E00D20FFF75FFF002318464C
:107D10000837BD4680BD0000F8B500BFF8BC08BC00
:107D20009E467047F8B500BFF8BC08BC9E46704739
:087D3000042300200000000004
:087D380050F5FF7F010000007F
:107D400004230020000000000000000000000000EC
:107D50000000000000000000000000000000000023
:107D60000000000000000000000000000000000013
:107D70000000000000000000000000000000000003
:107D800000000000000000000000000000000000F3
:107D900000000000000000000000000000000000E3
:107DA000000000000090D0036972020041720200DE
:04000003200075BDA7
:00000001FF
